:020000040800F2
:10000000080500200101000825240008B91F000888
:1000100051210008930B0008E12F000800000000A8
:10002000000000000000000000000000E5280008BB
:10003000351A000800000000612600086D2A00083B
:100040001B0100081B0100081B0100081B01000820
:100050001B0100081B0100081B0100081B01000810
:10006000D91A00081B010008151B00081B01000815
:100070001B0100081B0100081B0100081B010008F0
:100080001B0100081B0100081B0100081B010008E0
:10009000C52F00081B010008990B0008791B0008F8
:1000A0001B0100081B0100081B0100081B010008C0
:1000B0001B0100081B0100081B0100081B010008B0
:1000C0001B0100081B0100081B0100081B010008A0
:1000D0001B0100081B0100081B0100081B01000890
:1000E0001B0100081B0100081B010008DFF80CD0F1
:1000F00000F040FB004800470934000808050020D4
:100100000648804706480047FEE7FEE7FEE7FEE7B1
:10011000FEE7FEE7FEE7FEE7FEE7FEE7B12A00089E
:10012000ED000008D2B201E000F8012B491EFBD21D
:1001300070470022F6E710B513460A4604461946F2
:10014000FFF7F0FF204610BDF0B480EA0102D40FA3
:100150004200B2EB410F02D20246084611464A0065
:1001600042D0C30DDDB2C1F3C752AD1A202D35DA2E
:10017000C1F3160141F4000204B15242C5F1200658
:1001800002FA06F12A411044B3EBD05F23D0C4B188
:10019000012DA0EBC35009DCF0BC4FF0004202EA95
:1001A000C352DBB200F5000000F058BA400000F185
:1001B000807000EBC350A0F1807040EAD17049001C
:1001C00009E0490841EAC071A0EBC35000F5000006
:1001D000400800EBC350F0BC00F037BA6142012286
:1001E00002EB4101001BF6E7F0BC704781F00041D3
:1001F000AAE780F00040A7E72DE9FE4F804681EA9C
:100200000300C00F0C46009021F0004123F0004590
:10021000B8EB0200A94105D24046214690461C4653
:100220000B46024623F00040104347D0270DC7F38A
:100230000A00C3F30A510290401A019040286BDA79
:10024000C3F3130040F4801B0098924620B10023B2
:10025000D2EB030A63EB0B0B01985946C0F1400245
:10026000504600F0D1F906460D4650465946019ACF
:1002700000F0D9F910EB08006141002487EA11521F
:1002800084EAE7731A4340D0009A62B3019A012AC4
:100290004FEA075215DC001B61EB02014FF00042F0
:1002A00002EA0752CDE90042001C41F580113246B6
:1002B0002B4600F010FA03B0BDE8F08F404621460F
:1002C000F9E7001B61EB0201001C41F580130018E7
:1002D0005B412018A2F5001747EB030140EAD570F7
:1002E000B6196D4111E06D084FEA360645EAC07552
:1002F0004FEA0752001B61EB0201001C41F580111F
:1003000049084FEA30000019514132462B4603B0EC
:10031000BDE8F04F00F0D0B9009801224000002362
:10032000D0EB020263EBE073009821464FEAE074E1
:10033000B8EB000061EB0401E9E783F000435BE701
:1003400081F0004158E72DE9FE4F81EA030404F0F3
:10035000004421F0004100944FF0000B23F00043D3
:1003600050EA01045ED052EA03045BD0C3F30A549E
:10037000C1F30A552C44A4F2F3340194A0FB0254B7
:10038000C1F3130141F48011C3F3130343F4801349
:1003900001FB024400FB034E840A970A44EA81549D
:1003A00047EA8357A4FB076802958D0A05FB07857A
:1003B0004FEA932C04FB0C542705029D4FEA065884
:1003C00047EA1637B5EB08056EEB070C870E920E61
:1003D00047EA811742EA8312A7FB0201B6EB0B0141
:1003E00064EB00042B0D43EA0C335E1844EB1C5005
:1003F000DA465146E7FB0201C5F313044FEA0B331B
:1004000043EA14534FEA0432019C43EA0603A4F181
:100410000C040294009CCDE900B400F05CF903B038
:10042000BDE8F08F00200146F9E72DE9F04D81EAA3
:10043000030404F0004B21F0004514464FF0000A7D
:1004400023F0004150EA050220D054EA01021DD0F9
:10045000C5F30A570246C5F31303C1F31300C1F3F2
:100460000A5640F4801543F48013A7EB0608101BCE
:10047000D64608F2FD3873EB050002D308F10108F7
:1004800001E092185B41B8F1000F03DA0020014649
:10049000BDE8F08D00204FF48011064684460EE042
:1004A000171B73EB050705D3121B63EB050306430C
:1004B0004CEA010C49084FEA300092185B4150EABF
:1004C0000107EDD152EA030012D082EA040083EA68
:1004D0000501084305D0101BAB4106D201220023C1
:1004E00006E000224FF0004302E06FF001025310DB
:1004F0001AEB06004CEB085110EB0A0041EB0B0124
:10050000BDE8F04D00F0D8B80EB540F2334102918D
:100510000021CDE900110A460B4600F0DCF803B0DB
:1005200000BD00F0004230F000400AD0C10D01F5DE
:100530006071C0F3160042EA0151C208400711433E
:10054000704700200146704730B5041E71F1000469
:1005500004DB4FF00044404264EB0101141E73F1D0
:10056000000405DB1C464FF00043524263EB0403DA
:100570008B4208BF824230BD30B5041E71F10004C9
:1005800004DB4FF00044404264EB0101141E73F1A0
:10059000000405DB1C464FF00043524263EB0403AA
:1005A000994208BF904230BD01F0004330B421F0C1
:1005B000004150EA010206D00A0DA2F56072C1F3B3
:1005C0001301002A02DC30BC00207047440F44EACB
:1005D000C104C100E01830BC00EBC25000F035B8D7
:1005E000002801DBC0F10040002901DBC1F100411E
:1005F00081427047002801DBC0F10040002901DB87
:10060000C1F1004188427047202A04DB203A00FAF9
:1006100002F1002070479140C2F1200320FA03F359
:10062000194390407047202A06DBCB17203A41FA45
:1006300002F043EAE07306E041FA02F3D040C2F16F
:10064000200291400843194670470029A8BF70470F
:10065000401C490008BF20F00100704710B4B0FAF8
:1006600080FC00FA0CF050EA010404BF10BC704793
:1006700049B1CCF1200421FA04F411FA0CF118BFAD
:10068000012121430843A3EB0C01CB1D4FEA00617C
:100690004FEA102042BF002010BC704700EBC3504F
:1006A00010440029A4BF10BC7047401C490008BF7B
:1006B00020F0010010BC704710B5141E73F1000447
:1006C00008DA401C41F1000192185B411A4301D144
:1006D00020F0010010BD2DE9F04D92469B4611B16E
:1006E000B1FA81F202E0B0FA80F220329046FFF7D0
:1006F0008BFF04460F4640EA0A0041EA0B015346CD
:100700005A46084313D0114653EA010019D0C8F1E4
:100710004002504600F040F805460E465046594605
:100720004246FFF771FF084305D0012004E0204650
:100730003946BDE8F08D0020054346EAE0762C43BB
:1007400037430A986305E40AA0EB08000022FD0A7B
:1007500044EA47540A3002D500200146E9E7010582
:1007600010196941DDE9084500196941BDE8F04DFE
:10077000A2E70000064C074D06E0E06840F00103E8
:1007800094E8070098471034AC42F6D3FFF7B2FC68
:10079000A4340008C4340008202A04DB203A21FADB
:1007A00002F00021704721FA02F3D040C2F120028A
:1007B00091400843194670472DE9F04F8BB001F086
:1007C000F7FB8246BAF80000FFF79EFE4FF0663254
:1007D0003E4BCDE90201FFF7B6FD804600223C4BBF
:1007E000FFF723FE064600223A4BFFF71EFE0022CB
:1007F000394BCDE90401FFF7A6FD00224FF08043FD
:10080000CDE90601FFF711FE0446FFF7CDFE099082
:10081000BAF80200FFF778FE06464FF066322B4B1F
:10082000FFF791FD00222A4BCDE90601FFF7FDFD00
:1008300004460022294BFFF786FD8046FFF7B4FEF1
:100840008346BAF80400FFF75FFE06464FF06632B3
:100850001E4BFFF778FD804600221D4BFFF7E5FD9C
:1008600004464FF06632194BFFF76AFDCDE90201ED
:10087000BAF80400FFF748FE06464FF06632134B05
:10088000FFF761FD04460022114BFFF7CEFDCDE9D5
:100890000001DDE90223FFF7C8FD4FF06632104B7F
:1008A000CDE90401FFF74FFDCDE90601FFF77CFE1E
:1008B0000890584602F0D8FB099800F075FF089898
:1008C00002F09CFA0BB0BDE8F08F000066660A40AB
:1008D0000000B0400000344000408F400000244041
:1008E0006666144021B1826842F00102826003E032
:1008F000826822F0010282607047000000B587B074
:10090000002001F0AFFE01214FF4017001F0D6FE8E
:1009100000208DF81B003120ADF8180006A92748EB
:1009200001F072FA00F086FF254800F057F8012028
:100930008DF80900002004904FF4602003900020FF
:10094000019003208DF8140001208DF8080001A902
:100950001B4800F085F8072301220021184800F009
:10096000A7F8072302220421154800F0A1F8072365
:1009700003220521124800F09BF80121104800F0E5
:1009800021F801210E48FFF7ADFF0D4800F0ECF80B
:1009900000BF0B4800F05AF80028FAD1084800F0D0
:1009A000F3F800BF064800F047F80028FAD101210B
:1009B000034800F0DEF807B000BD00000008014069
:1009C0000024014021B1826842F48072826003E019
:1009D000826822F4807282607047000010B504467D
:1009E0001248844208D10121401501F077FE002110
:1009F000601501F073FE17E00D48844208D1012113
:100A0000001501F06BFE0021201501F067FE0BE0E0
:100A10000848844208D10121C80301F05FFE00218B
:100A20004FF4004001F05AFE10BD000000240140C8
:100A300000280140003C0140014600208A6802F085
:100A400004020AB1012000E00020704701460020A6
:100A50008A6802F008020AB1012000E00020704715
:100A600030B502460020002350680F4C20400D791D
:100A70000C6844EA05242043506090680B4C2040E9
:100A8000D1E902542C434D7944EA45042043906057
:100A9000D06A20F470000C7C641EE4B2234340EA68
:100AA0000350D06230BD0000FFFEF0FFFDF7F1FF04
:100AB000F0B504460D4600200021092D11DDE06847
:100AC000A5F10A0606EB4607072606FA07F1884352
:100AD000A5F10A0606EB460603FA06F10843E060B4
:100AE0000CE0206905EB4507072606FA07F1884365
:100AF00005EB450603FA06F108432061072A0FDAE1
:100B0000606B561E06EB86071F2606FA07F1884320
:100B1000561E06EB860605FA06F10843606322E0DE
:100B20000D2A0FDA206BD61F06EB86071F2606FA62
:100B300007F18843D61F06EB860605FA06F108433F
:100B4000206310E0E06AA2F10D0606EB86071F267F
:100B500006FA07F18843A2F10D0606EB860605FAB0
:100B600006F10843E062F0BD816841F00801816050
:100B7000704721B1826842F4A002826003E082687B
:100B800022F4A00282607047816841F00401816014
:100B9000704700BFFEE7000010B504210A4800F0CE
:100BA000BDF9012803D10421074800F00FF84FF4E4
:100BB0000041054800F0B2F9012803D1C103024801
:100BC00000F004F810BD000000640040B1F5007FA3
:100BD0003AD00FDC202928D006DC01291CD00429BA
:100BE0001DD0082940D11DE0402921D0B1F5807FDA
:100BF0003AD126E0B1F5004F31D006DCB1F5806F77
:100C000025D0B1F5006F2FD124E0B1F5803F12D08F
:100C1000B1F5003F28D111E0154A826025E0082295
:100C2000C26022E01022C2601FE0082202611CE0C4
:100C30001022026119E00822426016E01022426090
:100C400013E00422426010E0042242600DE004221E
:100C500042600AE0002282610422426005E0002234
:100C600082610422426000E000BF00BF70470000C4
:100C70000101010000B589B00121480601F00EFD17
:100C80000121092001F01AFD18208DF823004FF4EE
:100C90000070ADF8200003208DF8220008A93D481F
:100CA00001F0B2F848208DF823004FF48070ADF8C1
:100CB000200008A9374801F0A7F801214FF4EA10F5
:100CC00001F02EF900208DF81B008DF81C00082083
:100CD0008DF8180007208DF8190000208DF81700F6
:100CE0000420ADF8140000208DF8160001208DF8C6
:100CF0001D0000208DF81E008DF81A008DF81F00D1
:100D000005A9254800F0A3F901208DF81100002065
:100D1000ADF80C00ADF80400ADF80600ADF8080021
:100D2000ADF80A008DF80F008DF80E0001208DF847
:100D3000100001A800F032F814208DF80000012006
:100D40008DF8030000208DF801008DF80200684640
:100D500001F06AFB16208DF8000001208DF80300D9
:100D600000208DF8010001208DF80200684601F096
:100D70005BFB01220221084800F060F901220421F6
:100D8000054800F05BF90122D103034800F056F951
:100D900009B000BD000C01400064004010B5002106
:100DA000837A012202FA03F13D4A126842F00102FD
:100DB0003B4B1A603A4A1C3212688A43384B1C3348
:100DC0001A60027BCAB9364A0C3212688A43344B25
:100DD0000C331A604288C38842EA0343304A4032E7
:100DE000847A42F834300288838842EA03432C4AEA
:100DF0004032847A02EBC4025360027B012A19D18B
:100E0000274A0C3212680A43254B0C331A60428879
:100E1000038842EA0343224A4032847A42F834305B
:100E2000C288838842EA03431D4A4032847A02EB37
:100E3000C4025360C27A3AB9194A121D12688A4331
:100E4000174B1B1D1A6006E0154A121D12680A4353
:100E5000134B1B1D1A60028932B9114A14321268F1
:100E60008A430F4B14331A600289012A06D10C4AB7
:100E7000143212680A430A4B14331A60427B012A67
:100E800006D1074A1C3212680A43054B1C331A600C
:100E9000034A126822F00102014B1A6010BD0000E3
:100EA0000066004010B50246002001F4700343B113
:100EB0009369C1F3130423400BB101202DE00020FE
:100EC0002BE001F0807343B15368C1F31304234056
:100ED0000BB1012021E000201FE001F0006343B1CD
:100EE0009368C1F3130423400BB1012015E00020E7
:100EF00013E001F0007343B1D368C1F3130423403E
:100F00000BB1012009E0002007E01369C1F31304CD
:100F100023400BB1012000E0002010BD70B5044655
:100F20000D46002660692840002871D0B5F5807F05
:100F30005CD010DC082D35D006DC012D20D0022D30
:100F400024D0042D72D127E0102D31D0202D35D0A2
:100F5000402D6BD138E0B5F5004F60D009DCB5F518
:100F6000007F49D0B5F5806F4CD0B5F5006F5DD1ED
:100F70004FE0B5F5803F2DD0B5F5003F56D12FE0BD
:100F8000A0682D4900F0CCFA064651E0E068032144
:100F900000F0C6FA06464BE0E068082100F0C0FA0F
:100FA000064645E0E068102100F0BAFA06463FE048
:100FB0002069032100F0B4FA064639E020690821CF
:100FC00000F0AEFA064633E02069102100F0A8FADE
:100FD00006462DE06068082100F0A2FA064627E0E8
:100FE0006068102100F09CFA064621E0A06901210A
:100FF00000F096FA06461BE0A069022100F090FA84
:10100000064615E0A069042100F08AFA06460FE0C2
:101010000FE0A069702100F083FA064608E06068DE
:10102000042100F07DFA064602E0FFE7002600BF3B
:1010300000E00026304670BD010101001AB143698D
:101040000B43436102E043698B434361704730B512
:10105000024600200023146824F00204146014687F
:1010600044F00104146000E05B1C546804F00104C7
:101070001CB94FF6FF74A342F6D1546804F0010482
:101080000CB900206CE08C79012C04D1146844F078
:101090008004146003E0146824F080041460CC79A8
:1010A000012C04D1146844F04004146003E0146877
:1010B00024F0400414600C7A012C04D1146844F02C
:1010C0002004146003E0146824F0200414604C7AB7
:1010D000012C04D1146844F01004146003E0146877
:1010E00024F0100414608C7A012C04D1146844F0AC
:1010F0000804146003E0146824F008041460CC7A37
:10110000012C04D1146844F00404146003E0146852
:1011100024F0040414608C78A407CD7844EA0564B4
:101120000D7944EA05444D7944EA05540D886D1E55
:101130002C43D461146824F001041460002300E0FF
:101140005B1C546804F001041CB14FF6FF74A34209
:10115000F6D1546804F001040CB1002000E0012035
:1011600030BD0246002019B9D36803F0030006E041
:10117000012903D1136903F0030000E00020704748
:1011800010B500F5D87303EB01131B6803F00403DB
:101190001372137A53B900F5D87303EB01131B686C
:1011A00040F2FF7404EA5353136009E000F5D8736A
:1011B00003EB01131B686FF0604404EAD303536030
:1011C00000F5D87303EB01131B6803F0020353729D
:1011D00000F5D87303EB01135B6803F00F03937200
:1011E00000F5D87303EB01135B681B0AD37400F599
:1011F000D87303EB01139B68D37200F5D87303EB2C
:1012000001139B681C0A147300F5D87303EB0113D8
:101210009B681C0C547300F5D87303EB01139B6897
:101220001B0E937300F5D87303EB0113DB68D373C4
:1012300000F5D87303EB0113DB681C0A147400F586
:10124000D87303EB0113DB681C0C547400F5D873DE
:1012500003EB0113DB681B0E937421B9C36843F0E1
:101260002003C36003E0036943F02003036110BD62
:1012700030B585B0054600211248FFF772FF10B95E
:10128000012005B030BD6A4600210E48FFF778FF07
:101290000098C0F3C31028700098C0F384006870F1
:1012A0009DF80A00A870002406E00DF10B00015D16
:1012B000E81C0155601CC4B29DF80A00A042F4DC91
:1012C0000020DEE7006400402DE9F04385B00746CA
:1012D0000D46904699460024082D03DD012005B0F7
:1012E000BDE8F0834FEAC81040EA8900C01CC0F393
:1012F0000A0000908DF80A5000208DF809008DF842
:101300000800002405E0395D0DF10B000155601C5B
:1013100084B2AC42F7DB69460E4800F01DF8064681
:10132000042E13D101E0601C84B23146094800F05C
:10133000A7F8042803D140F6FF708442F3DB40F69F
:10134000FF70844201DB0120C9E700E000BF00BF5D
:101350000020C4E70064004010B5024600209368F6
:1013600003F08063B3F1806F00D110E0936803F065
:101370000063B3F1006F01D1012008E0936803F02E
:101380008053B3F1805F01D1022000E004200428E3
:1013900074D002F5C07303EB00131B6803F0010463
:1013A00002F5C07303EB00131C600B7A7BB94B7A18
:1013B0000C8843EA445302F5C07404EB001424681B
:1013C000234302F5C07404EB0014236010E00B7A91
:1013D0004C6843EAC4034C7A234302F5C07404EB1F
:1013E00000142468234302F5C07404EB0014236046
:1013F0008B7A03F00F038B7202F5C07303EB0013BB
:101400005B6823F00F0402F5C07303EB00135C600C
:1014100002F5C07303EB00135B688C7A234302F57B
:10142000C07404EB001463608B7B1C064B7B44EAA6
:1014300003440B7B44EA0323CC7A234302F5C074B4
:1014400004EB0014A3608B7C1C064B7C44EA034431
:101450000B7C44EA0323CC7B234302F5C07404EBEA
:101460000014E36002F5C07303EB00131B6843F044
:10147000010402F5C07303EB00131C6010BD0000F3
:1014800010B50246002321B1012907D002290FD14E
:1014900009E090681D4C00EA04030BE090681C4CC6
:1014A00000EA040306E090681A4C00EA040301E035
:1014B000002300BF00BF184C181BA34216D007DC46
:1014C00083B16FF08060184470B1022818D111E028
:1014D000B0F5007F10D0114C204448B1B0F5003F6A
:1014E0000ED10BE002230DE000230BE0002309E006
:1014F000002307E0012305E0012303E0012301E0CD
:10150000002300BF00BFD8B210BD000003000004DC
:101510000003000800000310000100080001FFF7AD
:101520000246002002EA01030BB1012000E0002086
:101530007047000000201EE0104901EBC00149681F
:1015400043F2D402914214D90C4901EBC00149780D
:1015500002290ED10122094901EBC0014A7007217D
:10156000074A11700549091F0978491E034A121FCD
:101570001170411CC8B21028DEDB704788000020C3
:101580004D00002010B504461A480078072809D1FC
:101590002178194800EBC1004078012802D10020D1
:1015A000144908702178144800EBC10040780228E3
:1015B0000FD02178104800F831100221227800EB7A
:1015C000C20041700C48001F0078401C0A49091FE6
:1015D000087001212278084800EBC20041602178A0
:1015E000054810F831200B2300210846FFF76CFE58
:1015F00010BD00004D0000208800002010B55848A4
:101600000078002876D157480078012834D1554811
:1016100080780C282BD2DFE800F0060B0C0D12139B
:1016200014191E1F24294F49487800F0E5FC1FE0DB
:1016300000BF00BF4B48401C00F038FF18E000BF5F
:1016400000BF4848401C00F0A7FD11E04548401C81
:1016500001F0E6F90CE000BF4248401C00F07AFDC2
:1016600006E04048401CFFF78DFF01E000E000BFAE
:1016700000BF00203B4908703B4800684EF66021DF
:10168000884202D908203949087039480068C828BA
:1016900004D900F03DFE0020354908603548006857
:1016A000C82804D90020334908603349086033480A
:1016B0000068C82806D900F065FF00202F4908609F
:1016C0002F4908602E480068B0F5FA6F0AD900F07B
:1016D00059FF00202949086001202A49087000208C
:1016E00027490860FFF726FFFFF766F800F0C6FA03
:1016F00034E0FFE700F00CFE00F044FF00201B493F
:101700000870214908702149086021490860214971
:101710000860174908601B49087019490860174993
:101720000860144908601449086008201A490870C4
:101730000D23002211461046FFF7C6FD00BF1749D2
:101740001748FFF7AFFB0028F9D0042015490870AF
:1017500000F0E6FC0121084600F056FF10BD000035
:101760003400002078000020500000204D000020B0
:101770003C00002048000020AC0121424000002035
:1017800068000020640000204E000020740000204B
:10179000700000206C00002039000020010000389B
:1017A000006400404C0000202DE9F04104461C4834
:1017B00001682046FEF71AFD0746FEF7B2FE21F04B
:1017C000004105460022174BFEF7D6FE26D81448E6
:1017D000046015492046FEF70DFF14D21349204638
:1017E000FEF708FF07D212480078062816DA06200E
:1017F0000F49087012E00E48007806280EDC05201C
:101800000B4908700AE00A480078052803D0084808
:101810000078062802D1002005490870BDE8F08153
:10182000700000200000E03F0000704200008C4289
:101830004D00002000B58BB00121084600F01EFFCE
:10184000114800F033F803200390002002900A9022
:101850000E4801904FF48060079080200590202072
:1018600008900B48009080150690002004904FF4DB
:10187000005009906946044800F0BEF80121024872
:1018800000F008F80BB000BD080002402E00002058
:101890004C24014021B1026842F00102026004E0E0
:1018A00002684FF6FE731A400260704701684FF6F7
:1018B000FE72114001600021016041608160C160E1
:1018C0004B49884208D14A490839496841F00F011B
:1018D000474A083A51608AE045491431884208D1A4
:1018E00043490839496841F0F001414A083A5160DA
:1018F0007DE03F492831884208D13D49083949688F
:1019000041F470613A4A083A516070E038493C311C
:10191000884208D136490839496841F47041344A4F
:10192000083A516063E032495031884208D1304969
:101930000839496841F470212D4A083A516056E04F
:101940002B496431884208D129490839496841F452
:101950007001274A083A516049E0254978318842A8
:1019600008D123490839496841F07061204A083A92
:1019700051603CE01F49884206D1011F096841F0CF
:101980000F01021F116032E01A491431884208D158
:101990001849091F096841F0F001164A121F116029
:1019A00025E014492831884208D11249091F0968E5
:1019B00041F470610F4A121F116018E00D493C316B
:1019C000884208D10B49091F096841F47041094A4E
:1019D000121F11600BE007495031884207D10549B9
:1019E000091F096841F47021024A121F11607047F3
:1019F000080002400804024010B50022026847F6C1
:101A0000F0739A430C6A8B6823430C6923434C6937
:101A100023438C692343CC6923434C6A23438C6A58
:101A200023431A430260CB6843600B6883604B68B2
:101A3000C36010BD7047000010B500201549086054
:101A4000154908701549086015490870154908605E
:101A5000154908601549086015490860154908606E
:101A600015490860012015490870002014490880B4
:101A700014490870082014490870002013490870A0
:101A80001348002101604160816084211148FEF704
:101A900050FB10BD480000206400002068000020BA
:101AA000440000206C000020700000207400002022
:101AB0003C000020400000205000002034000020A6
:101AC0003600002038000020390000203A000020B5
:101AD000780000208400002010B5042000F070F889
:101AE00098B10A48006810B90820094908700748E9
:101AF0000068012806D106480078082802D1002095
:101B000003490870042000F055F810BD08812142F7
:101B10004D00002010B5102000F052F828B31348F3
:101B20000068C0B912480078012811D100F08CFD7E
:101B300010B1012000F05EFD00F0D5FE00200C4940
:101B400008700C23002211461046FFF7BDFB02E08F
:101B500001200849088005480068012802D10020BA
:101B600004490880102000F025F810BD10812142A2
:101B7000340000203600002010B5402000F020F88E
:101B800098B10A48006810B9082009490870074848
:101B90000068012806D106480078082802D10020F4
:101BA00003490870402000F005F810BD18012142DB
:101BB0004D000020014908607047000014040140F6
:101BC000014600200022074B1B6803EA0102054B77
:101BD00014331B680B4013B10AB1012000E0002050
:101BE0007047000000040140002123498279002A47
:101BF0003AD00A46126803689A430B461A600A1DD7
:101C0000126803689A430B1D1A60027911440A682E
:101C100003681A430A60184A0832126803689A4334
:101C2000154B08331A601A1D126803689A43124B49
:101C30000C331A604279102A0ED11A1F12680368F9
:101C40001A430D4B08331A601A1D126803681A43B1
:101C5000094B0C331A600DE00749427911440A68B8
:101C600003681A430A6005E0027911440A680368B0
:101C70009A430A60704700000004014000B54748DD
:101C8000007809287ED2DFE800F055833637380522
:101C9000204D490042480078042803DB4048007882
:101CA000052811D101203F4908603F49086040F2F2
:101CB000EE203E4908600420394908703C4800681D
:101CC00010B901203A49086063E0354800780528DA
:101CD00010DA01203349086033490860FA2033499B
:101CE000086005202E4908703148006810B90120AD
:101CF0002F4908604DE000BF00BF29480078032845
:101D00000BDA012027490860274908604FF4FA7070
:101D1000264908600320224908703AE0072020493C
:101D2000087036E01E480078062802DA06201C49B2
:101D300008702EE01F48007818B91F480078012865
:101D400007D001201D49086000201D49C1F8A401E9
:101D500006E000201949086001201949C1F8A401D2
:101D600000201649083108600D48007810B10020A5
:101D7000091D086000200B4908600B4908600C49E8
:101D8000086000E004E00F4908600549087000BFE2
:101D900000BF00BF01F050FA00BD00004D00002060
:101DA0004E000020580000205C0000206000002051
:101DB000500000203A0000202C000020A001214209
:101DC000000021425400002030B500228B071C0F78
:101DD0000F2303FA04F20B4B8C1053F82430934377
:101DE000084C8D1044F8253023468C1053F82430CD
:101DF0008C07240F00FA04F42343024C8D1044F89E
:101E0000253030BD080001402DE9F0410246002593
:101E10000026002000230024002791F803C00CF0C6
:101E20000F0591F803C00CF0100CBCF1000F03D0AB
:101E300091F802C04CEA050591F800C0BCF1000F12
:101E400031D0146800202BE04FF0010C0CFA00F3A5
:101E5000B1F800C00CEA03069E4220D183004FF087
:101E60000F0C0CFA03F7BC4305FA03FC4CEA04041C
:101E700091F803C0BCF1280F06D14FF0010C0CFA09
:101E800000FCC2F814C00AE091F803C0BCF1480F8E
:101E900005D14FF0010C0CFA00FCC2F810C0401C38
:101EA0000828D1D31460B1F800C0BCF1FF0F34DDB5
:101EB000546800202EE000F1080C4FF0010808FAE9
:101EC0000CF3B1F800C00CEA03069E4221D1830056
:101ED0004FF00F0C0CFA03F7BC4305FA03FC4CEA75
:101EE000040491F803C0BCF1280F05D100F1080CDF
:101EF00008FA0CF8C2F8148091F803C0BCF1480F3E
:101F000007D100F1080C4FF0010808FA0CF8C2F8EC
:101F10001080401C0828CED35460BDE8F08100003A
:101F2000F0B50A46002300240021002500F00046F9
:101F3000B6F1004F02D11D4EF16901E01B4E7168F0
:101F4000C0F3034583B200F44016B6F5401F08D134
:101F500021F07061154E766826F07066134F7E6032
:101F600012E000F48016B6F5801F06D1032606FAAB
:101F700005F4A14341F0706106E0460D360103FA15
:101F800006F6B14341F0706122B1460D360103FA05
:101F900006F6314300F00046B6F1004F02D1034E81
:101FA000F16101E0014E7160F0BD000000000140F0
:101FB000004870472E00002000BFFEE70C48007864
:101FC000A0B9002010E00B4901EBC00149780229BB
:101FD00008D1084901EBC0014968491C054A02EBD8
:101FE000C0025160411CC8B21028ECDB70470000F1
:101FF000340000208800002010B50446204600F080
:1020000061FC10BD1FB50121092000F057FB042021
:102010008DF80F001420ADF80C0003A92948FFF734
:10202000F3FE04208DF80F004020ADF80C0003A94A
:102030002548FFF7E9FE04210120FFF7C5FE022134
:102040000120FFF7C1FE06210020FFF7BDFE54204E
:10205000019001208DF80A0000208DF80800102062
:102060008DF8090001A8FFF7BFFD08208DF80000DA
:1020700001208DF8030000208DF8010002208DF86A
:102080000200684600F0D0F90A208DF80000012017
:102090008DF8030000208DF801008DF802006846DD
:1020A00000F0C2F917208DF8000001208DF8030020
:1020B00000208DF8010001208DF80200684600F034
:1020C000B3F91FBD000C01400008014008B5012113
:1020D000042000F0F3FA0121082000F0EFFA1020AC
:1020E0008DF803004FF47040ADF8000003208DF828
:1020F000020069460848FFF787FE10208DF80300AC
:102100004FF47060ADF8000003208DF802006946BE
:102110000248FFF779FE08BD000C014000080140AD
:102120000020084908600849C1F8B4010549083190
:102130000860091D086005490860091D0860091D3F
:1021400008607047B081214200802142A0012142F5
:1021500000BFFEE710B50446207800F0DFFBFF2843
:1021600011D060780849087008460078082804D122
:1021700001200649086006490860002005490860FA
:10218000207800F09FFB10BD39000020480000209F
:10219000AC0121423C00002010B50446207800F03C
:1021A000BDFBFF282DD018480078062826DC607873
:1021B000042819D115480078012802D11449086073
:1021C0001CE01148007820B901201249086012492A
:1021D0000860E0781149087000F03CF800F086F8DB
:1021E00001200B49086009E06078062805D100202D
:1021F0000749086000F08CF800E010BD207800F07E
:1022000061FB00BFF9E700004D0000203A0000200C
:102210003C00002048000020AC0121424400002086
:102220000948007878B90948006820B10748006873
:10223000401C064908600648006820B10448006850
:10224000401C034908607047340000203C00002017
:102250004000002010B52348047823480078062861
:1022600002D1042C00DD0424082C38D2DFE804F06D
:10227000040A10161D23293000214FF0804000F081
:1022800064FD2DE040F28A21480700F05EFD27E062
:1022900040F21451080700F058FD21E040F29E7111
:1022A0004FF0804000F051FD1AE040F62821C806AA
:1022B00000F04BFD14E040F6B241480700F045FD48
:1022C0000EE040F63C714FF0804000F03EFD07E02C
:1022D00041F2C6114FF0804000F037FD00E000BF32
:1022E00000BF10BD440000204D00002010B54FF08D
:1022F0008040008C40F010004FF080410884FFF7D0
:10230000A9FF01200149087010BD00003A0000201B
:102310004FF08040008C4FF6EF7108404FF0804145
:102320000884002001490870704700003A0000202E
:1023300010B588B000240121052000F0BFF901216B
:10234000084600F0ABF918208DF81F000E20ADF8FC
:102350001C0003208DF81E0007A92F48FFF754FD2D
:102360002E4800682E49B0FBF1F0401E84B20020D8
:10237000ADF81600ADF8120041F2BF20ADF8140020
:10238000ADF8104004A94FF0804000F0E5FC60205B
:10239000ADF800000020ADF80200ADF80600ADF881
:1023A000080069464FF0804000F0CAFB0821C806CB
:1023B00000F018FC6020ADF800000120ADF802002C
:1023C0000020ADF80600ADF8080069464FF08040E7
:1023D00000F016FC0821C80600F062FC6020ADF891
:1023E00000000120ADF802000020ADF80600ADF8B5
:1023F000080069464FF0804000F05CFC0821C806E8
:1024000000F096FC0121880700F082FB012188077B
:1024100000F08AFB08B010BD000801401400002045
:1024200000366E017047000070B5002100230F22B6
:10243000C47804B3154C246804F4E064C4F5E06483
:10244000210AC1F10403CA40447804FA03F18478F4
:102450001440214309010E4C0678A155047804F07C
:102460001F050124AC4005786D11AD0005F1E02594
:10247000C5F8004109E0047804F01F050124AC40D0
:10248000044D0678761145F8264070BD0CED00E04D
:1024900000E400E080E100E002490143024A1160EB
:1024A000704700000000FA050CED00E010B504468E
:1024B000207800F033FAFF2854D02B480078072802
:1024C00050DA607801281FD128480078002846D1CA
:1024D00027480078032803D10120264908603EE000
:1024E0002348007801283AD11F48007820B90120FC
:1024F000214908602149086000F058F801201D4971
:1025000008601F4908602AE0607802281ED1174839
:10251000007820BB16480078022803D10120154915
:1025200008601CE012480078012818D10E48007895
:1025300020B90120104908601049086000F048F8EF
:1025400001200C4908600E49086008E000F01AF804
:102550000020064908700A4908600649086020788A
:1025600000F0B0F910BD00004D0000206400002014
:102570002C0000204000002048000020AC01214237
:102580006800002010B541F2BF214FF0804000F0FC
:10259000DEFB41F2BF214FF0804000F0DAFB01206A
:1025A0000149087010BD00002C00002010B54FF448
:1025B00070614FF0804000F0CAFB00214FF0804076
:1025C00000F0C7FB03200149087010BD2C0000205B
:1025D00010B500214FF0804000F0B9FB4FF470615E
:1025E0004FF0804000F0B5FB02200149087010BD9B
:1025F0002C0000200349096841EA8001014A11606A
:10260000704700000070004010B5024600200C4BDF
:10261000186820F00300104318600A4B1B6843F051
:102620000403084C2360012901D130BF00E020BF22
:10263000044B1B6823F00403024C236010BD000010
:102640000070004010ED00E001460020034A52688F
:102650000A400AB1012000E00020704700700040ED
:102660007047000001460020034A506820F44040B3
:1026700008435060704700000010024029B1064A2C
:1026800052690243044B5A6104E0034A526982438F
:10269000014B5A61704700000010024029B1064A00
:1026A000D2690243044BDA6104E0034AD2698243EF
:1026B000014BDA61704700000010024029B1064A60
:1026C00092690243044B9A6104E0034A926982438F
:1026D000014B9A61704700000010024029B1064A80
:1026E000D2680243044BDA6004E0034AD2688243B2
:1026F000014BDA60704700000010024030B5002145
:102700000022002400232D4D6D6805F00C0121B13D
:10271000042905D0082923D105E0294D056022E0D0
:10272000274D05601FE0254D6D6805F47012234D9F
:102730006D6805F48034022505EB92421CB9214DE9
:10274000554305600BE01D4D6D6805F400351DB166
:102750001C4D5543056002E0194D5543056002E0EC
:10276000174D056000BF00BF144D6D6805F0F00106
:102770000909154D6B5C0568DD4045600F4D6D68BE
:1027800005F4E061090A104D6B5C4568DD40856029
:102790000A4D6D6805F46051C90A0B4D6B5C4568C4
:1027A000DD40C560054D6D6805F44041890B074D5E
:1027B0006B5CC568B5FBF3F5056130BD00100240E8
:1027C00000127A0000093D000000002010000020E7
:1027D00010B501460022002300204A11012A02D12F
:1027E000094C236806E0022A02D1074C236A01E063
:1027F000054C636A01F01F02012494401C400CB197
:10280000012000E0002010BD001002400248406896
:1028100000F00C00704700000010024011490968E8
:1028200021F480310F4A11601146096821F480219A
:102830001160B0F5803F03D0B0F5802F0ED106E0D7
:102840000849096841F48031064A116007E00549EA
:10285000096841F4A021034A116000E000BF00BFF5
:1028600070470000001002400149086670470000F0
:102870000000424201460020034A506820F0030055
:1028800008435060704700000010024038B5002037
:1028900000900024002500BF3120FFF799FF054676
:1028A0000098401C00900098B0F5A06F01D0002D5A
:1028B000F2D03120FFF78CFF08B1012400E00024A2
:1028C000204638BD00B50246104600F027F8034602
:1028D000FF2804D00121024800EBC300416000BD85
:1028E00088000020704710B54FF48030FFF796FF46
:1028F000FFF7CCFF0446012C0FD1FFF7B5FF00BF57
:102900003920FFF765FF0028FAD00220FFF7B2FF59
:1029100000BFFFF77BFF0828FBD110BD014605482B
:1029200000EBC1004078022801D108467047FF2023
:10293000FCE700008800002010B500F001F810BD91
:102940000CB50020019000903348006840F48030BE
:102950003149086000BF3048006800F40030009042
:102960000198401C0190009818B90198B0F5A06F2B
:10297000F1D12948006800F4003010B10120009026
:1029800001E0002000900098012843D1234800680E
:1029900040F01000214908600846006820F003005C
:1029A00008600846006840F0020008601A48406865
:1029B000194948600846406848600846406840F445
:1029C000806048600846406820F47C1048600846F3
:1029D000406840F4E81048600846006840F08070A5
:1029E000086000BF0C48006800F000700028F9D0B3
:1029F0000948406820F003000749486008464068DD
:102A000040F00200486000BF0348406800F00C003E
:102A10000828F9D10CBD000000100240002002403F
:102A200010B504462078FFF779FFFF2814D0E0782E
:102A30000A49097888420CD00948007820B9012059
:102A40000849086008490860E07804490870FFF701
:102A500001FC2078FFF736FF10BD00004400002085
:102A60004D00002048000020AC01214210B50E4866
:102A7000008801280FDB0C480088401C0A490880A8
:102A800008460088B0F5FA6F05DD01200749087097
:102A900000200549088000F063FCFFF78FFAFFF77C
:102AA000BFFB00F00BFA10BD360000203400002000
:102AB00010B51348006840F001001149086008464D
:102AC0004068104908400E494860084600680E49B1
:102AD00008400B4908600846006820F48020086020
:102AE0000846406820F4FE0048604FF41F008860EC
:102AF000FFF722FF4FF000600449086010BD00009E
:102B0000001002400000FFF8FFFFF6FE08ED00E0B5
:102B100021B1028842F08002028004E002884FF670
:102B20007F731A400280704721B1028842F001028F
:102B3000028004E002884FF6FE731A40028070475C
:102B400070B5002400220023058C4FF6EF76354047
:102B50000584028C8388048B48F6FF752C404FF661
:102B6000FF452C400D884FF6FF7606EA05252C43DD
:102B70004FF6DF752A400D8906EA05152A434D8870
:102B800006EA05152A43154DA84202D0144DA84265
:102B90001DD14FF67F752A404D894FF6FF7606EA24
:102BA00005152A434FF6BF752A408D8806EA05159C
:102BB0002A434FF6FF352B404FF2FF752B408D898E
:102BC00006EA85052B43CD8906EA85052B438380DC
:102BD0000483CD880587028470BD0000002C01406D
:102BE000003401400A460021018B4FF2FF73194067
:102BF0004FF6FF7303EA0223194301837047000075
:102C000070B5002400220023058C4FF6FF66354086
:102C10000584028C8388848B4FF68F752C404FF689
:102C2000FC752C400D882C434FF6FF552A400D892A
:102C30004FF6FF7606EA05252A434D8806EA052564
:102C40002A43154DA84202D0144DA8421DD14FF27F
:102C5000FF752A404D894FF6FF7606EA05252A437F
:102C60004FF6FF352A408D8806EA05252A434EF6A1
:102C7000FF752B404DF6FF752B408D8906EA051533
:102C80002B43CD8906EA05152B4383808483CD88A9
:102C90008587028470BD0000002C01400034014093
:102CA0000A460021818B4FF6F77319401143818347
:102CB0007047000070B5002200230024058C4EF6FA
:102CC000FF7635400584038C8488828B48F6FF7537
:102CD0002A404FF6FF452A400D884FF6FF7606EA58
:102CE00005252A434DF6FF752B400D8906EA05356B
:102CF0002B434D8806EA05352B430B4DA84202D0E5
:102D00000A4DA84208D14BF6FF752C408D894FF62D
:102D1000FF7606EA85152C4384808283CD88A0F84F
:102D20004050038470BD0000002C0140003401407D
:102D30000A460021818B4FF2FF7319404FF6FF7353
:102D400003EA022319438183704701877047818713
:102D50007047A0F840107047002202881D4B98422F
:102D60000ED01D4B98420BD0B0F1804F08D01B4BBA
:102D7000984205D01A4B984202D01A4B984204D17F
:102D80004FF68F731A404B881A43174B984207D05F
:102D9000164B984204D04FF6FF431A40CB881A4393
:102DA00002808B8883850B8803850A4B98420BD061
:102DB000094B984208D00E4B984205D00D4B9842D3
:102DC00002D00D4B984201D10B7A038601238382F6
:102DD00070470000002C0140003401400004004016
:102DE00000080040000C00400010004000140040AB
:102DF0000040014000440140004801402DE9F041FD
:102E00000446244801682046FDF7F0F90746FDF71F
:102E100088FB21F0004105461F4A204BFDF7ACFB23
:102E200036D81C4804602046FDF77BFB05461C4A4B
:102E30001C4BFDF789FB24D82046FDF772FB0546A5
:102E4000194A1A4BFDF780FB03D80820184908706F
:102E50001EE01848006810B901201649086015489E
:102E6000006842F21071884202D9042010490870AB
:102E700010480068104988420AD908200C49087097
:102E800006E00B480078042802D1002008490870A9
:102E9000BDE8F0816C0000209A9999999999A93F11
:102EA00014AE47E17A1401402DB29DEFA7C6F33F5F
:102EB0004D00002054000020C0D4010004480068E8
:102EC00020B103480068401E0149086070470000B7
:102ED0002800002021B1828942F40052828104E05E
:102EE00082894DF6FF731A40828170472DE9F047C1
:102EF00086B005460E460024A24600BFA146002724
:102F0000B08900B100BF2F462C8A4CF6FF700440F8
:102F1000F08804432C82AC894EF6F3100440B0884C
:102F200031890843718908430443AC81AC8A4FF668
:102F3000FF400440B0890443AC8201A8FFF7DEFBE8
:102F40001F48874202D1DDF810A001E0DDF80CA097
:102F5000A88900F4004040B10AEBCA0000EB0A1057
:102F600031684900B0FBF1F807E00AEBCA0000EB5A
:102F70000A1031688900B0FBF1F86420B8FBF0F06A
:102F800004012009642101FB1089A88900F4004094
:102F900040B1322000EBC900B0FBF1F000F00700B7
:102FA000044308E0322000EB09106421B0FBF1F08B
:102FB00000F00F0004432C8106B0BDE8F08700004C
:102FC0000038014010B50548007830B90348401C6E
:102FD000FEF74EF901200149087010BD780000206D
:102FE00000BFFEE710B586B00446012144F2090097
:102FF000FFF764FB01210420FEF792FF18208DF8F3
:1030000017004020ADF8140003208DF8160005A924
:103010001348FEF7F9FE04208DF817008020ADF864
:10302000140005A90E48FEF7EFFE01940020ADF84C
:1030300010000C20ADF80E000020ADF80C00ADF82B
:103040000A00ADF80800ADF8100001A90548FFF727
:103050004DFF01210348FFF73DFF06B010BD000002
:10306000000C0140003801402DE9F0410546674859
:1030700001682846FDF7BAF88046FDF752FA21F0BC
:10308000004106464FF03332614BFDF775FA0DD81B
:103090005E4805605F492846FDF7ACFA07D25E48F6
:1030A0000078022802DA02205B490870ACE0594936
:1030B0002846FDF795FA1FD858492846FDF79AFA91
:1030C0001AD2002454480078022802D10020524924
:1030D0000870534800788442E8D0012051490860C4
:1030E0005149C1F8B4014F49083108604E49C1F84F
:1030F000BC014B48047087E048492846FDF770FA48
:1031000020D84A492846FDF775FA1BD201244248C7
:103110000078022802D100203F490870404800781A
:10312000844271D001203F4908603F49C1F8B40191
:103130003C490831086000203B49C1F8BC013848CF
:10314000047061E039492846FDF74AFA20D8384929
:103150002846FDF74FFA1BD202242F480078022898
:1031600002D100202C4908702D48007884424BD0B1
:1031700001202C4908602C49C1F8B40100202949DC
:10318000083108602849C1F8BC01254804703BE0BB
:1031900027492846FDF724FA20D826492846FDF776
:1031A00029FA1BD203241C480078022802D10020EF
:1031B000194908701A480078844225D0012019491D
:1031C000086000201849C1F8B401164908310860A8
:1031D0001549C1F8BC011248047015E000201149DE
:1031E00008601149C1F8B4010E49083108600E4960
:1031F000C1F8BC0108480078022802DA022006491A
:103200000870042006490870BDE8F08174000020B1
:103210003333D33F000090414D0000200000404177
:103220004C000020B081214200802142000030414A
:1032300000002041000010414348007800286DDD67
:1032400041480078072869DA4048006840B13F48A3
:103250000068B0F5FA7F03D201203D4908602DE0F7
:103260003A480068B0F5FA7F08D338480068B0F5EE
:103270002F7F03D20020364908601FE033480068E2
:10328000B0F52F7F08D331480068B0F5966F03D2B0
:1032900001202F49086011E02C480068B0F5966FB6
:1032A00009D32A48006840F2A461884203D2002072
:1032B0002749086002E00120244908602548006889
:1032C00088B1244800682449096888420BD201204B
:1032D0001F49083908602149C1F8A80100201C498C
:1032E0000C3908601AE01B4800681B4909688842CD
:1032F00011D31948006817490968B1EB400F0AD289
:10330000002013490C3908601449C1F8A401104980
:10331000091F086002E001200E4908600A48007891
:10332000072803D00848007808280CD10120084954
:1033300008600A49C1F8A801002005490C39086055
:103340000649C1F8A40170474D0000205800002034
:10335000AC0121425C0000206000002000002142FE
:103360001A48007800282FD11948006820B1184861
:103370000068401C164908601648006820B11548CE
:103380000068401C134908601348006820B11248C7
:103390000068401C104908601048006820B10F48C0
:1033A0000068401C0D4908600D48006820B10C48B9
:1033B0000068401C0A4908600A48006820B10948B2
:1033C0000068401C07490860704700003400002076
:1033D000580000205C000020500000205400002015
:1033E000480000206800002002E008C8121F08C141
:1033F000002AFAD170477047002001E001C1121F76
:10340000002AFBD1704700004FF4A060FFF744F89A
:1034100001210807FFF742F91F4800684FF47A724C
:10342000B0FBF2F1B1F1807F01D301201DE021F06A
:103430007F40401E4FF0E022506150170F220028BD
:1034400007DA13071D0E154B00F00F04241F1D553E
:1034500003E013071C0E124B1C5400BF00204FF05A
:10346000E022906107201061002008B100BFFEE754
:103470004FF4E130FFF7B6FDFEF728FEFEF758FFE8
:10348000FEF7C0FDFDF7F6FBFDF738FAFEF7D4FABC
:1034900001E0FEF7B3F8FCE71400002018ED00E0AF
:1034A00000E400E0C43400080000002078000000C0
:1034B000E83300083C350008780000209004000044
:1034C000F8330008000000000102030401020304B5
:1034D000060708090204060800A24A0400000000CA
:1034E00000000000010203040607080900000000B4
:1034F00001000000000000000000000000000000CB
:1035000000000000000000000000000000000000BB
:1035100004000000000000000000000000000000A7
:10352000000000000000000000000000000000009B
:0C3530000000000000000000000000008F
:04000005080000ED02
:00000001FF
